:020000020000FC
:100000000FEF0DBF08E00EBF0FEF04B900E005B918
:1000100000E007B90FEF08B90FEF0AB900E00BB91C
:1000200000E80093610004E0009361000E94220058
:100030000E942F00762F7295842F472B4BB90E9478
:100040003C00F4CF36B133FD0E94450033FD4A95A4
:1000500034FD0E94450034FD43954F70089556B11C
:1000600051FD0E94450051FD6A9552FD0E944500D8
:1000700052FD63956F70089596B1861F8F7190FF42
:100080000E94450090FF85B9089521E00E944B0031
:100090002A95E1F7089510E40FEF103021F01A953A
:0800A0000A95F1F7F9CF08956C
:00000001FF
