:020000020000FC
:100000000FEF0DBF08E00EBF0FEF04B900E005B918
:1000100000E007B90FEF08B90FEF0AB900E00BB91C
:100020000E9419000E942600762F7295472B4BB92B
:10003000F7CF36B130FD0E94330030FD4A9531FDD7
:100040000E94330031FD43954F70089556B152FD23
:100050000E94330052FD6A9553FD0E94330053FD08
:1000600063956F70089523E00E9439002A95E1F7A7
:1000700008951FEF0FEF103021F01A950A95F1F750
:04008000F9CF089517
:00000001FF
